:020000040000FA
:10000000B83F0020A1010000BB010000051A00005C
:1000100000000000000000000000000000000000E0
:10002000000000000000000000000000BF01000010
:100030000000000000000000C101000003230000D8
:10004000271F00002F1F0000371F0000431F000064
:10005000D3170000B12800007D2D0000892D00007D
:10006000391A0000411A0000951F0000A11F00006E
:10007000151A00001D1A000099280000A128000090
:10008000A92800002D1A0000B9280000C12800008E
:10009000C9280000171F00004B3B00004F1F000045
:1000A000B91100001F1F0000373B0000952D000014
:1000B000BF170000251A0000B9180000C71700007C
:1000C00000F002F800F041F80CA030C808382418FD
:1000D0002D18A246671EAB4654465D46AC4201D180
:1000E00000F033F87E460F3E0FCCB6460126334271
:1000F00000D0FB1AA246AB4633431847DC4A000047
:10010000FC4A00000023002400250026103A01D3F9
:1001100078C1FBD8520700D330C100D50B607047BF
:1001200010B5642902D100F083F810BD002010BD85
:100130001FB500F089FF04000020002104F03CFB03
:10014000401C60601FBD10B510BD00F090FF11464F
:10015000FFF7EEFF01F029F800F0A8FF03B4FFF766
:10016000F2FF03BC00F0F0FF70B505460C461646E2
:1001700002E00FCC0FC5103E102EFAD2082E02D38B
:1001800003CC03C5083E042E07D301CC01C5361F9E
:1001900003E021782970641C6D1C761EF9D270BDB5
:1001A0000C480D4A002100A1814200D902440B48AD
:1001B00002600B4880470B480047FEE7FEE7FEE77A
:1001C000FEE7FEE7FEE7000007480849084A094B3A
:1001D00070470000000000200000000008ED00E073
:1001E00059280000C1000000B83B0020B83F0020A3
:1001F000B83D0020B83D00200FB41CB50C0007AA84
:10020000009001D00019401E084B7B4469460190C4
:10021000069800F08EFE002C03D06946002000F006
:100220009BFE1CBC08BC04B018470000550D000024
:10023000F7B5002575291068009914A611D0C0469D
:10024000C046002802DA404211A608E00099096879
:100250008A0701D50FA602E0490704D50EA601259D
:1002600001E0C046C046009F0024243704E000F0AF
:10027000D3FE30313955641C0028F8D12B46324664
:100280002146009800F0F8FDFEBD000000000000CF
:100290002D0000002B00000020000000F3B50446F4
:1002A000002081B020622046E168884700287DD088
:1002B000252802D06268A16883E0454F00257F446D
:1002C0002046E16888472028064608DB312E06D202
:1002D000B81920380078002801D00543F0E7A807B6
:1002E00001D5042085430020E0610746A0612A2E45
:1002F0000AD0304603F0A8FC002827D0B800001927
:10030000303E0090866119E00298BA00121902C8C6
:10031000916102902046E1688847012F064617D177
:10032000E06900281FDA202085431CE000980A219C
:100330008069484300998019303888612046E16817
:100340008847064603F080FC0028EFD1012F0AD031
:100350002E2E08D12046E168884706462020054316
:100360007F1C022FC3DBA069002803DA4042A06192
:1003700001200543E80701D010208543002E24D03A
:1003800030464138192803D80120C00205432036E1
:10039000204625603146029A1546FFF7C1FE002827
:1003A0000CD0012807D0ED1DE80800E00DE0C000EA
:1003B0000830029077E72D1D029574E76268304699
:1003C000A1689047206A401C6CE7206AFEBD0000CF
:1003D00042480000F7B50F460026009C2578641CB3
:1003E000002D05D000F03CFD0068405DC007F5D150
:1003F0002B2D02D02D2D18D0641E3946029A20468E
:1004000000F0B7FD002F04D03968A14201D1009956
:1004100039607105022400290BDA4042002803DD0F
:1004200000F026FD0460A007FEBD01208002064307
:10043000E3E70028F8DA00F01BFD04600048FEBD89
:10044000FFFFFF7F401ECAB24178401C8A4202D0A3
:100450000029F9D10020704730B5441C03E0017831
:10046000401C00290DD08107F9D10B4BDD0104C8D8
:10047000D11A91432940FAD0001B0A0603D0C01EAE
:1004800030BD001B30BD0A0401D0801E30BD090202
:10049000FCD0401E30BD000001010101F8B5042A66
:1004A0002CD3830712D00B78491C0370401C521EBA
:1004B00083070BD00B78491C0370401C521E830726
:1004C00004D00B78491C0370401C521E8B079B0FF5
:1004D00005D0C91ADF002023DE1B08C90AE0FFF798
:1004E00043FEF8BD1D4608C9FD401C46B4402C43E0
:1004F00010C0121F042AF5D2F308C91A521EF0D4F4
:100500000B78491C0370401C521EEAD40B78491C1E
:100510000370401C012AE4D409780170F8BD431A25
:1005200070B593421BD28918801804E0491E401E02
:100530000B78521E03709307F8D106E0103910387B
:1005400078C9103978C01038103A102AF6D203E072
:10055000091F001F0B680360121FF9D570BDFFF75C
:1005600003FE70BDF8B5064614460843800707D061
:10057000751AA54219D20819102D13D2311907E0A6
:100580003046FFF7CCFFF8BD401E491E02780A70C6
:10059000641EF9D2F8BD471B2A463946FFF77EFF95
:1005A000641B3846A542F6D3011B22463046FFF7AE
:1005B00075FFF8BD01E004C0091F0429FBD28B07B9
:1005C00001D50280801CC90700D002707047002945
:1005D0000BD0C30702D00270401C491E022904D36D
:1005E000830702D50280801C891EE3E70022EEE724
:1005F0000022DFE7002203098B422CD3030A8B423F
:1006000011D300239C464EE003460B433CD400220A
:1006100043088B4231D303098B421CD3030A8B421C
:1006200001D394463FE0C3098B4201D3CB01C01AEA
:10063000524183098B4201D38B01C01A52414309B5
:100640008B4201D34B01C01A524103098B4201D3A3
:100650000B01C01A5241C3088B4201D3CB00C01A10
:10066000524183088B4201D38B00C01A5241430888
:100670008B4201D34B00C01A5241411A00D20146AD
:100680005241104670475DE0CA0F00D04942031046
:1006900000D34042534000229C4603098B422DD395
:1006A000030A8B4212D3FC22890112BA030A8B423D
:1006B0000CD3890192118B4208D3890192118B428C
:1006C00004D389013AD0921100E08909C3098B4211
:1006D00001D3CB01C01A524183098B4201D38B0154
:1006E000C01A524143098B4201D34B01C01A5241F7
:1006F00003098B4201D30B01C01A5241C3088B423C
:1007000001D3CB00C01A524183088B4201D38B0026
:10071000C01A5241D9D243088B4201D34B00C01AB0
:100720005241411A00D20146634652415B101046C5
:1007300001D34042002B00D54942704763465B100D
:1007400000D3404201B50020C046C04602BD7047FC
:10075000704770470246C80FC00781434B0030B551
:100760004B405B009B0D20D01923DB06C9180123E9
:100770001B05994220DB0324A40704251346AB4044
:100780000BD3002B04D1EB0613409B00E34204D4AF
:1007900001246407002312195941FF231B059942C4
:1007A0000BD2C9000143500F09E0CB0204D501432D
:1007B0000803024305D0054830BDFF21C9050843A1
:1007C00030BD084607210905884330BD0000C07FC1
:1007D000F0B5F94D0C091E092C402E402F468BB068
:1007E000A7437DD0B543FCD0002E7AD0002CFCD09E
:1007F0000D465D40ED0F2543AC1BFF25AD0464198C
:100800000894C502440DC9022143500DDC02044383
:100810000120C00701430443D2020191200C110CB6
:1008200000958C46010423468B430A9161460904D6
:10083000E24D8A430991010A7D44491980390978BA
:1008400005464D4301266D18F605751B6943C90C15
:10085000640B891C4C436418B5012C1B250C2E0419
:10086000B4434C434D43210C691889090591009DFF
:10087000E90701D00121C90704912C4601996708B5
:10088000CD072F434C08059DE10B4D432D0C294608
:100890006646754302950D4645432E46029D7D1BD7
:1008A000B44100950D465D4301942C0C2F040D4678
:1008B0005543AE462D0C3D43029503947546049C6A
:1008C0002D04641B049406D2029C039D641C002624
:1008D00075410395029401AC70CC009F7D1B01E033
:1008E0003EE162E1B4410904009507910194059944
:1008F000A4086143090C0C464443650BE7040C460D
:1009000066467443A646640B3C43039502947446C2
:10091000049DE4042C1B049406D2029C039D641CD9
:10092000002675410395029401AC70CC009F7D1B9D
:10093000B44101940C465C430095650FE7000C46FA
:100940005443A646640F3C43039502947446049DA9
:10095000E4002C1B049406D2029C039D641C002618
:1009600075410395029401AC70CC009F7D1BB4418E
:10097000AE09AF06049DC900AD092F43049DA4062E
:10098000AD060495079D344369180791059DE10B59
:100990004D432D0C29466646754302950D46454349
:1009A0002E46029D7D1BB44100950D465D4301948A
:1009B0002C0C2F040D465543AE462D0C3D4302959D
:1009C00003947546049C2D04641B049406D2029C77
:1009D000039D641C002675410395029401AC70CC04
:1009E000009F7D1BB44101948C050694079C890AE5
:1009F000611800950791019C0599A4086143090CB1
:100A00000D464543680BEF040D46644665436C0B89
:100A10003C43049FED047D1BAC4602D20025641CC0
:100A20006841009E019D371B85410846584301954A
:100A30000C46460FC5005443600F28436546E4004A
:100A40002C1B02D20025401C6E41019D3F1AB5416E
:100A50002846BD09800628438446A009BF064E02E9
:100A60000699A40676180743079D002068410A9955
:100A7000079019430020099B00906046FF1913431B
:100A80004041E20F64003A43A4460446D71A8C4121
:100A9000A04203D90120009020463A46C70F94187F
:100AA00040416246D20F2243644664000494009C95
:100AB000BE466400D71AA446044602978C41774686
:100AC000002F01D1A04204D96046401C8446029AFE
:100AD0002046C40FA64694184041049A0546D20FFA
:100AE000224364466400D31A8D417146002901D126
:100AF000A84202D928461A46641C10430122002845
:100B000000D0164361020020079B891904465C410E
:100B10000223002C02DB491813466441089DCE0ACB
:100B20002D145D194B056705E10A2C050D1908996F
:100B30003E43C9076940002B08D0934006D30022EA
:100B4000761C5141002B01D1760876001C4A002DFD
:100B500043DB154241D0AA433FD030460BB0F0BD35
:100B600006180D464D41174C7642AC411AD39518E4
:100B70001C465C41134A6D42A24113D30122520527
:100B80004C00D4420AD15C00D4420BD04B4002D579
:100B900092021143E2E749004908DFE75940C90FD3
:100BA000C90718E000200849D8E7054801420DD1DF
:100BB0000342F7D0F2E700000000FF07D94200002F
:100BC0000000F07F0000E0FF0000F87F114859406E
:100BD0000143C01241400020C0E70123089A9B0650
:100BE0009A4205DC032252078918C90FC907B5E7E5
:100BF000052252078918074A1143D2125140ADE726
:100C000070B515461C4602460B4628462146FFF79E
:100C1000DFFD70BDFFFFFF7F1F22030C02D10F22FB
:100C2000000402D0030E03D004E000200146704708
:100C30000002083A030F01D10001121F830F01D1F6
:100C40008000921E002801DB4000521E1205511840
:100C50004205C012411810467047C10FC90700D0A5
:100C60004042012292071143D6E701218907D3E7C9
:100C7000F0B5FF252D04C609C209FF2704462E4002
:100C80000137CB093E4348402A402B400746002A03
:100C90006BD0002B69D0AA4267D0AB4265D0002848
:100CA00000DA32460125ED0529432C4309022002D2
:100CB000090AD21A4B0C7F24E31A434C000A7C44E5
:100CC000E35C7D242404121914145B00A2188842EA
:100CD00001D3521C00E0400049420C465C43241101
:100CE0005C43DB016415E318040A5C43C502200D74
:100CF0000C4644436419250A5D432303EC0C0D465E
:100D0000654300030019EB184C42A34201D35B1862
:100D1000401CD4052018002B07D05B00C91804D351
:100D2000401C002901D1400840003F2189048A422B
:100D300009D3002A08DC1106090F04D00321490752
:100D40004018C00FC007F0BD0122410012068918EB
:100D50007F2252069142F6D205214907C84201D5A9
:100D60009010F0BDFF20C005F0BD002F00DA324624
:100D70001648AA4207D2AB4205D21902090E17D073
:100D8000F80FC007F0BDFF2563002D06AB42F9D870
:100D90004900A942F6D8AB4201D1A942F2D0A942FA
:100DA00001D1002101E061004908D0050843F0BDF0
:100DB0001102090EFBD0FF200243D005F0BD0A4608
:100DC0000146104654E70000D33E00000000C07FFB
:100DD0000102C21504D00123DB071943002A0ADBF4
:100DE0009E239A1A02D40846D0407047FF22410041
:100DF0001206914201D900207047C017C0437047C6
:100E00001F22030C02D10F2200041CD0030E01D1BB
:100E10000002083A030F01D10001121F830F01D114
:100E20008000921E002801DB4000521ED20551189E
:100E3000021251181922904004D3491C002801D1F4
:100E40004908490008467047C10FC90700D0404211
:100E5000012292071143D3E701218907D0E700005F
:100E600010B500F0F1F8001D10BD00BF4D390000B5
:100E700000487047543B0020FFB504460D4681B042
:100E8000243000902168880604D51022E06991433F
:100E9000216000E00120A84201DD471B00E000279F
:100EA0000498A1697A191018081AA0612078C00660
:100EB00002D42046C046C046002608E00398626877
:100EC000A168805D9047206A401C761C20620498CF
:100ED0008642F3DB2078C0060AD52046C046C046CD
:100EE00006E06268A16830209047206A401C2062BA
:100EF00038467F1E0028F4DC07E000986268A1688D
:100F0000405D9047206A401C206228466D1E0028E4
:100F1000F3DC2046C046C0462078000602D50220F9
:100F200005B0F0BD0120FBE701694A1C02610878A9
:100F3000704700B58FB002910021059105490193DA
:100F400079440391114604906846FFF7A7F90FB062
:100F500000BD0000E5FFFFFF0A681070521C0A6028
:100F600070470CC908399A4202D2531C0B601070AA
:100F70007047F7B5154682B00027029C2078641CA4
:100F80000197302802D0002D15D015E020780127D8
:100F9000641C782804D0582802D0002D09D00BE01A
:100FA000002D01D0102D07D1207800271025641CBA
:100FB00002E0082500E00A250026009610E00099CE
:100FC00001276943081829467143020C80B200903A
:100FD0008E183804864201D3012001902078641CC9
:100FE000294600F035F80028E9DA0398002805D0F2
:100FF000002F01D0641E00E0029C046001980028CC
:1010000006D0FFF735FF02210160C81E05B0F0BD14
:10101000009930040843F9E701468008081A0209DC
:101020001018020A1018020C1018C00882001218BA
:101030005200891A01E0401C0A390A29FBD2704784
:1010400000487047543B002000487047743B002024
:101050003A2800D23038202302469A43412A01D34D
:1010600010463738884201D30020C0437047754688
:10107000FFF7E6FFAE46050069465346C008C000CC
:10108000854618B020B5FFF79FF860BC00274908D7
:10109000B6460026C0C5C0C5C0C5C0C5C0C5C0C510
:1010A000C0C5C0C5403D49008D46704710B50446D7
:1010B000C046C0462046FFF751F810BD024670B545
:1010C0000A4392072AD11E4DEE0104C808C9541BD9
:1010D0009443344017D0D0B2D9B2401A210601430C
:1010E00010D190B299B2401A210401430AD11002E2
:1010F0001902000A090A401A2102014302D1100E06
:10110000190E401A70BD9A42DFD010BA19BA88423F
:1011100001D9012070BD0020C04370BD02780B785A
:10112000401C491C002A09D09A4207D102780B784A
:10113000401C491C002A01D09A42EFD0D01A70BD41
:10114000010101017047000001491820ABBEFEE714
:101150002600020070B58C180578401C6B075B0FE9
:1011600001D10378401C2A1106D10278401C03E00B
:101170000678401C0E70491C5B1EF9D12B0705D464
:101180000023521E0DD40B70491CFAE70378401C53
:10119000CB1A921C03E01D780D70491C5B1C521E7B
:1011A000F9D5A142D8D3002070BD10B501F054FB91
:1011B00002F074FF002010BD10B5C046C046C04606
:1011C000C04610BD30B5034614465A6D002C03D0FE
:1011D00001208840024304E00120884015468543F1
:1011E0002A465A65002030BD01460022FF20053006
:1011F00042500020704701460868000C0004086057
:1012000000207047024601208840C343FF2005307C
:1012100083500020704701460A6890B2704710B5AD
:101220000246FF240134A3581C46CC40E007C00FFF
:1012300010BD10B50246002901D1042010BD087868
:10124000052801DD0420F9E7106D0E2398430B7883
:101250005B000E24234018431065106DFF230133FB
:1012600098434B781B02FF24013423401843106538
:10127000106D702398438B781B0170242340184312
:1012800010650020DAE702465160002070470146F1
:10129000086D40084000401C0865002070470000B1
:1012A00038B50321684602F069FD01210A2001F0EA
:1012B0003FFA0021684601700121417004218170CC
:1012C00069460E48FFF7B5FF0D4C21460B48FFF766
:1012D000DAFF0A48FFF788FF012206210748FFF7D7
:1012E00071FF01220321132000F0AEFA0348FFF73B
:1012F00082FF0248FFF7CBFF38BD000000340040FA
:10130000E70300001CB50721684602F037FD012104
:101310001C2001F00DFA0020694648706A460D2134
:10132000802000F0EFFA0D21802000F0D1FA1CBDE2
:101330001FB51021684602F021FD0121022001F0B5
:10134000F7F9002168464180818001F0A7F90290F9
:10135000012189026846C1804B2109020391402185
:1013600001706946224800F09BFB0021204800F0F4
:101370006BFB01211E4800F067FB00211C4800F0B8
:1013800078FB01211A4800F074FB01221146082065
:1013900000F05AFA0121032001F0CAF90021684641
:1013A0004180818001F07AF902900121890268462A
:1013B000C1804B21C90103914021017069460D484C
:1013C00000F06EFB00210B4800F03EFB01210948B4
:1013D00000F03AFB0021074800F04BFB01210548D3
:1013E00000F047FB01221146092000F02DFA1FBD35
:1013F00000020040004000401CB50721684602F092
:10140000BDFC01211C2001F093F9002168464170C8
:101410006A460421802000F075FA01220421802010
:1014200000F0CAFA0121684641706A460521802011
:1014300000F068FA01220521802000F0BDFA0021A9
:10144000684641706A46802000F05CFA00218020E6
:1014500000F0BCFA01220021802000F0C5FA002132
:10146000684641706A46084600F04CFA02220021A4
:10147000084600F0A1FA0121684641706A46002042
:1014800000F040FA02220121002000F095FA1CBD74
:101490001CB50721684602F071FC01211C2001F0F7
:1014A00047F90021684641706A460921002000F092
:1014B00029FA01220921002000F07EFA0121684664
:1014C00041706A460A21002000F01CFA01220A211C
:1014D000002000F071FA0021684641706A4601213F
:1014E000802000F00FFA0121802000F06FFA012225
:1014F0001146802000F078FA0021684641706A4663
:101500000221002000F0FEF901220221002000F05B
:1015100053FA0121684641706A460321002000F019
:10152000F1F901220321002000F046FA002168466B
:1015300041706A460321802000F0E4F9052203216E
:10154000802000F039FA0121684641706A46022184
:10155000802000F0D7F904220221802000F02CFA2C
:101560000021684641706A460721802000F0CAF9D0
:1015700006220721802000F01FFA012168464170F1
:101580006A460621802000F0BDF90622114680201F
:1015900000F012FA1CBD08B5012168460170002157
:1015A0004170817000F0B1FE0121084600F0E2FEBA
:1015B00008BD00001FB51021684602F0DFFB0121C5
:1015C000002001F0B5F840216846017000214180FB
:1015D000E1214902039101214902818001F05EF875
:1015E000029069460120800702F04EFA0021012096
:1015F000800702F01DFA0121880702F019FA002184
:101600000120800702F029FA0121880702F025FA5B
:1016100001221146062000F017F90121084601F0C9
:1016200087F8402168460170002141804B21090262
:10163000039101214902818001F030F8029069464E
:10164000374802F021FA0021354802F0F1F9012172
:10165000334802F0EDF90021314802F0FEF9012192
:101660002F4802F0FAF901220321062000F0ECF8DD
:101670000121282001F05CF840216846017000211A
:101680004180E1214902039101214902818001F059
:1016900005F802906946234802F0F6F90021214836
:1016A00002F0C6F901211F4802F0C2F900211D48CD
:1016B00002F0D3F901211B4802F0CFF901221146B3
:1016C000062000F0C1F80121292001F031F8402165
:1016D00068460170002141804B21C901039101211D
:1016E0004902818000F0DAFF029069460E4802F05C
:1016F000CBF900210C4802F09BF901210A4802F0C5
:1017000097F90021084802F0A8F90121064802F0E3
:10171000A4F901220321072000F096F81FBD000064
:101720000001004000600040006400401CB507213B
:10173000684602F023FB01211C2000F0F9FF002184
:101740006846417081700171C17041716A460B2118
:10175000002000F0D7F86A460621402000F0D2F8B9
:101760001CBD1CB50721684602F008FB01211C20A6
:1017700000F0DEFF00216846C17001710121417057
:10178000002181704171012181716A460B21402045
:1017900000F0B8F86A460A21402000F0B3F86A4623
:1017A0000221402000F0AEF86A460021402000F0FF
:1017B000A9F86A460721002000F0A4F81CBD10B566
:1017C000C046C04610BD10B5C046C046C046C04663
:1017D00010BD10B5C046C04610BD00000120124922
:1017E00008701249087012490870124908701249AD
:1017F000087000201149C86711491048816700200E
:101800001049C8670E48886700210C488030416045
:101810000B480A498031086000200A49803148603D
:101820000748086070470000300100204001002098
:101830005001002060010020C00100209012002013
:10184000A08601003419002070B504460E461546E6
:101850002046002805DBC206D20E01219140144A21
:10186000116000BF3146204602F0B2F9012D0ED1C1
:101870002046002809DB00BF00BFC206D20E0121AE
:1018800091400C4A116000BF00BF00BF0FE020462E
:1018900000280ADBC206D20E01219140054A80329F
:1018A0001160BFF34F8FBFF36F8F00BF00BF70BDDC
:1018B00080E200E000E100E010B5C046C046C0464E
:1018C000C04610BD02461068C840C007C00F704730
:1018D00070B504460D46044960180122294600F0FF
:1018E00001FD002070BD0000140D024070B50446DB
:1018F0000D46034960182946FFF7E4FF70BD00005C
:10190000040D024070B504460E4615462149601884
:101910000022314600F0E6FC00201F496118B200A9
:1019200088502A781B49091F6018314600F0DAFCFC
:101930006A7818490C396018314600F0D3FCAA784F
:10194000144910316018314600F0CCFCEA78114996
:1019500014316018314600F0C5FC2A790D49183160
:101960006018314600F0BEFC6A790A4920316018DF
:10197000314600F0B7FC094880680121C90388435B
:10198000A979C9030122D2031140084303498860A1
:10199000002070BD0C0D0240000C0240000F024000
:1019A00070B504460D46034960182946FFF78AFFC3
:1019B00070BD0000080D024010B50346024818181B
:1019C0008C000251002010BD000C024070B504468E
:1019D0000D46044960180122294600F083FC0020CE
:1019E00070BD0000100D024070B504460D4616464D
:1019F000034960183246294600F074FC002070BD8F
:101A0000080D024008B50020009000BF0098002893
:101A1000FCD008BD10B5C046C04610BD10B5C046CC
:101A2000C04610BD10B5C046C04610BD10B500F090
:101A300009F900F01BF910BD10B500F02BF910BD2D
:101A400010B500F091F910BD70B504460D460022A6
:101A500029462046143000F045FC002070BD70B5CA
:101A600004460D4601222946201D00F03BFC0020C3
:101A700070BD70B504460D4601222946201D00F0B8
:101A800031FC002070BD70B504460D460026294685
:101A900020461030FFF716FF0646304670BD0000A6
:101AA000F0B587B005460C460127224A07CA04ABA9
:101AB00007C300200390002C02D1042007B0F0BD22
:101AC00000206860608861780843E1880843A18845
:101AD00008432178084368602078402802D02078A5
:101AE000C02824D1E088C117C90D091849128900FE
:101AF00004AA515A8EB2E168B1400846FFF7ACF92A
:101B00000290A068FFF7A8F901900299FFF7B0F8DA
:101B100003903F210906039802F064FE0290FFF74C
:101B200057F980B2A86104212846FFF798FF0027E3
:101B30003846C3E7F84A000001460868C0B270475B
:101B400002461068000A0002CBB218431060002061
:101B50007047000070B504460E4620783A2866D1DA
:101B60006078302863D1204602F0B4FD00285ED0B2
:101B7000A079312806D1E079302803D1204602F03F
:101B8000CFFB54E0A079382851D1E07930284ED1EC
:101B900027480078AD284ADBA0780546313D294624
:101BA000204602F077FB2348C068012804D102F0E8
:101BB00053F802201F49C8601F48007A00280DD042
:101BC00000201C49C8600B21FFF782FE062140203F
:101BD000FFF77EFE284602F03BF927E01648007822
:101BE000002823D115486843154940180D21C90123
:101BF0004018007F002803D1284602F06FFC15E052
:101C00000C484079002807D10A48C079002803D140
:101C1000284602F0C9FB09E006488079002803D174
:101C2000284602F0F1FA01E002F080FD00BF70BD2D
:101C30002A0000207C0C002080010020A406000067
:101C4000900C002010B5074800F05DF9012807D17D
:101C5000044800F04FF904480068401C024908603D
:101C600010BD0000000F00409800002010B507488C
:101C700000F049F9012807D1044800F03BF9044875
:101C80000068401C0249086010BD0000400F004081
:101C90009C00002010B500212A48FFF7F4FE002820
:101CA00028D000212748FFF7CFFE2648FFF744FF42
:101CB000254908702548007800281BD12448007861
:101CC0003A280DD122480178224802780078401C39
:101CD000204B18702048815401201C49087009E0ED
:101CE0001B4801781B4802780078401C194B18707B
:101CF0001948815401211348FFF7C5FE00281FD061
:101D000001211048FFF7A0FE144800781449097813
:101D100088420BDA114802780078401C0F4B18708B
:101D20001048815C0748FFF70BFF09E000200C49D1
:101D300008700A490870002211468020FFF754FEFF
:101D400010BD0000000200403500002068000020A7
:101D5000390000203A000020CC0A00203800002082
:101D600037000020040A002010B500211E48FFF7AC
:101D70008AFE002815D000211B48FFF765FE1A488F
:101D8000FFF7DAFE1949087008460178184802780A
:101D90000078401C164B18701648815401201649D3
:101DA000087001211048FFF76EFE00281AD00121AB
:101DB0000D48FFF749FE114800781149097888421B
:101DC0000BDA0E4802780078401C0C4B18700D4856
:101DD000815C0548FFF7B4FE04E000200849087064
:101DE0000649087010BD0000004000403900002086
:101DF0003A000020CC0A0020690000203C000020AE
:101E00003B000020940B002070B505460C462B00CB
:101E100001F0D0FE074D05111D2935414D0020462A
:101E200030302A49887011222948FEF737FB0F20ED
:101E3000284908703CE02046303027498870152238
:101E40002348FEF72BFB08202249087030E020468B
:101E500030302249887013221D48FEF71FFB1120E5
:101E60001C49087024E0204630301D498870132238
:101E70001748FEF713FB11201649087018E020469A
:101E800030301849887013221148FEF707FB1120E3
:101E9000104908700CE02046303013498870112238
:101EA0000B48FEF7FBFA0F200A49087000E000BF5C
:101EB00000BF0E4802780078401C0C4B1870044894
:101EC000815C0B48FFF73CFE70BD0000A8000020BD
:101ED000040A002037000020B9000020CE000020B6
:101EE000E1000020F400002007010020380000205D
:101EF0000002004010B5044600221146204614306E
:101F000000F0F0F910BD10B5044600212046103055
:101F1000FFF7D8FC10BD10B5C046C04610BD10B5C7
:101F2000C046C04610BD10B5C046C04610BD10B575
:101F3000C046C04610BD10B5C046C046C046C046EB
:101F400010BD10B5C046C046C046C04610BD10B555
:101F500000F014F810BD000010B500220321024863
:101F600000F0C0F910BD00000414004010B50321BA
:101F70000148FFF7A7FC10BD0414004010B5FFF79F
:101F8000F5FF012803D102490870FFF7E5FF10BDF6
:101F90001A00002010B5C046C046C046C04610BD5D
:101FA00010B5C046C046C046C04610BD0FB410B5FF
:101FB0006846007E012803D1072001F06DFC16E081
:101FC0006846C07E002803D1082001F065FC0EE0C1
:101FD0000C480078002803D1092001F05DFC06E0E0
:101FE0006846807E002802D10A2001F055FC00E0FE
:101FF00003E00548007A0028FAD100BF10BC08BCF5
:1020000004B01847103B00207001002070B501207B
:10201000A449087000200872A34908744874C87461
:10202000887402F08FF900251AE10A2001F0E4FE1D
:10203000052001F031FC0A2001F0DEFE032001F052
:10204000F3F80A2001F0D8FE98480178012001F049
:1020500021F896480078C01CC1B20120FFF7D4FED9
:1020600092480078401C914908700846007804287E
:1020700001D1012008700A2001F0BEFE042000F00A
:10208000DFFEC82001F0B8FE89480078412803D05F
:10209000874800784F2802D1012083494874854839
:1020A00000785A2806D183484078A52802D101201B
:1020B0007D49C874804800783A281AD17E48407813
:1020C000302816D17C4881787848007830308142B9
:1020D0000FD17948007932280BD17748807931289F
:1020E00007D17548C079302803D17348007A422857
:1020F0001ED0714840783A2826D16F488078302821
:1021000022D16D48C17869480078303081421BD1B6
:1021100069484079322817D16748C079312813D1EE
:102120006548007A30280FD16348407A42280BD1A5
:1021300001215E480078401E604A5043604A801882
:1021400035225201801841705E4800783A281AD131
:102150005C484078302816D15A4881785348007836
:10216000303081420FD15748007932280BD1554881
:102170008079312807D15348C079302803D151489C
:10218000007A42281ED04F4840783A2826D14D4840
:102190008078302822D14B48C178444800783030CC
:1021A00081421BD147484079322817D14548C07930
:1021B000312813D14348007A30280FD14148407A62
:1021C00042280BD1012139480078801C3B4A5043FA
:1021D0003B4A801835225201801841703A480078F5
:1021E000AA2812D138484078AA280ED136488078DB
:1021F000AA280AD13448C079002806D13248407A4A
:10220000902802D101202849887400202F490870A5
:102210002F4908702F4908702F4908702F490870FE
:10222000C8212948FEF7E2F9C8212648FEF7DEF961
:10223000C8212048FEF7DAF9C8211D48FEF7D6F973
:10224000C8212048FEF7D2F9012200218020FFF7A3
:10225000CBFB012211468020FFF7C6FB681CC5B2EC
:10226000122D00DAE1E60024002004E01649095CA2
:102270000919CCB2401C0628F8DB062C02D101203B
:10228000174908700848407C00280AD00648C07CDE
:10229000002806D00448807C002802D00120024992
:1022A000087470BD700100207C0C002031020020F9
:1022B000AC0700201C060020C4030020A406000078
:1022C000900C00203C090020340200202600002051
:1022D0002A0000202E0000203200002036000020BE
:1022E000103B002010B5012A05D1036801248C4061
:1022F0002343036004E0036801248C40A34303608C
:1023000010BD10B5C046C04610BD70B504460025CE
:102310002078030001F04EFC0504050C10181C0089
:1023200018E0032000F068FA032000F02FFA11E013
:10233000032000F019FA0DE00321084600F06AFAC4
:10234000032000F033FA05E0072000F0DFF901E098
:10235000042500BF00BF2078012100F00BF8207891
:1023600000F034FA607800F0A9F9A07800F0BAF92A
:10237000284670BDF8B505460C46002701F00EFC56
:10238000002C01D0012000E0002004466248066ACB
:10239000032D55D006DC002D09D0012D1AD0022DB9
:1023A00071D139E0042D70D0482DF9D193E05A480D
:1023B000006840084000E107C90F0843564908601B
:1023C00000BF002C05D05448C0680005C00F00288D
:1023D000F7D09BE05048006A012109078843401864
:1023E0004D4908624D48C068032108434B49C86005
:1023F00049480068022188436100022211400843D5
:102400004549086000BF002C05D0434800694006DC
:10241000C00F0028F7D079E03F48006804218843C6
:10242000A1000422114008433B49086000BF002C72
:1024300005D039484069C004C00F0028F7D065E0D6
:102440003548006A0121090788434018324908626B
:102450003348C0680321890308433149C8602E48C6
:10246000006808218843E1000822114008432A49F6
:10247000086000BF002C05D0274880694006C00FC7
:102480000028F7D042E03FE0FFE72348006A01213F
:10249000090488434018204908622248006840081F
:1024A0004000401C1F490860142001F077FC1A48C6
:1024B0000068102188432101102211400843164969
:1024C000086000BF002C05D01348C06B4003C00F4C
:1024D0000028F7D01AE01048403080690121090334
:1024E0008843210301221203114008430A49403165
:1024F000886100BF002C06D0074840308069000585
:10250000C00F0028F6D001E0042700BF00BF02483A
:1025100006623846F8BD000000200040401D024021
:10252000800D02400024004030B589B00024142200
:10253000564904A8FDF718FE54481430006803906B
:102540000020009001900290514801886846018166
:102550004F4841886846C1804D48818868468180DF
:102560004B48C18868464180494820300188684608
:102570000180484800680006450F2B0001F01AFB57
:1025800005042E303E4178004248C0684005400DA9
:1025900069460989884201D1089C1EE03D48C0680F
:1025A0004005400D6946C988884201D1079C14E066
:1025B0003848C0684005400D69468988884201D185
:1025C000069C0AE03348C0684005400D69464988CA
:1025D000884201D1059C00E0049C4BE02E4C49E070
:1025E000684600882B4949698905890D884202D1CE
:1025F0006846C48901E0684684893BE00124E4031D
:1026000038E02448C06B8007800F032829D1684632
:1026100000892049C9684905490D884201D1089CB3
:1026200020E06846C0881B49C9684905490D8842B1
:1026300001D1079C16E0684680881649C96849059B
:10264000490D884201D1069C0CE06846408811493A
:10265000C9684905490D884201D1059C02E0049CE6
:1026600000E00D4C0B48C06BC005000F444301E077
:10267000002400BF00BF074800684005410F204606
:10268000C8400446204609B030BD0000D84A0000CA
:10269000000C1000002000400024F40010B50024BD
:1026A000FFF742FF044604480068C004810F20463B
:1026B000C8400446204610BD0020004010B5044626
:1026C00001F06CFA064800680721090288432102DC
:1026D000072212021140084301490860002010BD82
:1026E0000020004010B5044601F058FA0648006882
:1026F0000321C9028843E1020322D20211400843A8
:1027000001490860002010BD0020004010B50146BE
:102710000020064AD26B0723DB039A43CB0307242E
:10272000E40323401A43014BDA6310BD002000404C
:1027300070B504460D4620202040002809D02021F5
:102740002046884304462A4621460648FFF7CAFD2C
:1027500005E02A4621460348001FFFF7C3FD00207D
:1027600070BD00002420004010B501460020064A3C
:10277000526903239B029A438B020324A402234041
:102780001A43014B5A6110BD0020004010B50146AC
:102790000020054A126930239A430B01302423405C
:1027A0001A43014B1A6110BD0020004010B50146CC
:1027B0000020054A926930239A430B0130242340BC
:1027C0001A43014B9A6110BD0020004070B50446C9
:1027D0000025264601F0E2F906480068E02188431A
:1027E0007101E022114008430249086000F02CF812
:1027F000284670BD0020004001460020044A1269AE
:10280000920892008B079B0F1A43014B1A61704785
:102810000020004030B5024600200A4B9B690C2482
:10282000A34394000C252C402343064CA36123466C
:102830009B699B089B008C07A40F2343014CA36159
:1028400030BD00000020004010B5FFF76DFE0149CB
:10285000086010BD0000002010B50D4949888805AA
:10286000800D0C494969890A89020143094A51616D
:102870000749203909894805400D1146C968C90A28
:10288000C9020143D160FFF7DFFF01F063F910BD1A
:10289000200C10000020004010B5C046C04610BDFE
:1028A00010B5C046C04610BD10B5C046C04610BDEC
:1028B00010B5C046C04610BD10B5C046C04610BDDC
:1028C00010B500F005F810BD10B5C046C04610BDEB
:1028D0003EB50621FE48FEF7A2FC01287ED1062166
:1028E000FB48FEF78FFCFA48FEF795FCF949088093
:1028F000F948007800280ED0F7484068401CF64997
:10290000486008464068C968884204D30020F249FC
:10291000486001200872F148007A00287ED0F04813
:10292000007800280ED0EE484068401CEC49486012
:1029300008464068C968884204D30020E8494860D6
:1029400001200872E648007A00281BD00020E449E4
:102950000872E4480068042809DA01221146802040
:10296000FFF742F8DF480178062000F093FBDD48CE
:102970000068401CDB49086008460068052801D152
:1029800001200860D848007800280ED0D64840685A
:10299000401CD549486008464068C968884204D34D
:1029A0000020D149486001200872CF48007A0028F1
:1029B0001DD00020CC490872CC480068072809DAED
:1029C000012200218020FFF70FF8C8480178062077
:1029D000FFF71AFAC5480068401C00E0CBE1C34984
:1029E000086008460068082801D104200860C04833
:1029F0000078002817D0BF480078002813D0BC48C2
:102A00004068401CBA49486008464068C968884226
:102A100009D30020B6494860B64900E032E00870AA
:102A20000120B3490872B4480078002815D0B14895
:102A30000078002811D0B0484068401CAE4948607A
:102A400008464068C968884207D30020AA49486000
:102A5000AA4908700120A8490872A9480068401CCA
:102A6000A74908600846006896280BD3A548007857
:102A7000002807D108600120A2490870A248007808
:102A800000F0D2FBA148007800280ED09F48406893
:102A9000401C9E49486008464068C968884204D383
:102AA00000209A494860012008729948007800285F
:102AB0000ED097484068401C9549486008464068D9
:102AC000C968884204D300209149486001200872F7
:102AD0008F48007A002805D00D2000F0DDFE002090
:102AE0008B4908728B48007800280ED089484068CE
:102AF000401C8849486008464068C968884204D339
:102B0000002084494860012008728248007A002829
:102B100021D000207F4908727F4803787FA20A21D4
:102B20006846FDF769FB6946002001F0A5F87A4880
:102B30000078012809D10020764908700A207649DA
:102B4000087001207649087004E073480078401E40
:102B50007149087000BF7248007800280ED0704894
:102B60004068401C6E49486008464068C968884211
:102B700004D300206A494860012008726848007A3E
:102B8000002810D000206649087208706548C068A7
:102B9000002804D064A1002001F06EF803E065A1D4
:102BA000002001F069F84D48007800280ED04B480D
:102BB0004068401C4949486008464068C9688842E6
:102BC00004D30020454948600120087200201CE021
:102BD00001015B4A515C002907D00101891849684D
:102BE000491C0201564BD21851600101544A891800
:102BF000097A002907D000210201514BD218117225
:102C00000201D2185160411CC8B20828E0DB4D48CF
:102C1000007800280ED04B484068401C4949486065
:102C200008464068C968884204D300204549486086
:102C3000012008724348007A002840D00020414912
:102C400008720B214020FEF751FE002801D101201F
:102C500000E000203349487000214020FEF746FE86
:102C6000002801D1012100E000212E4881700A21B5
:102C70004020FEF73BFE002801D1012100E00021A9
:102C80002848C17002214020FEF730FE002801D103
:102C9000012100E0002123480171407800280ED076
:102CA0002048807800280AD01E48C078002806D026
:102CB0001C480079002802D001211A48417122489D
:102CC0000068401C20490860084600687D213DE0FE
:102CD00000340040A00000202001002070010020EE
:102CE000300100201C0000204001002020000020B6
:102CF00050010020650000206001002068000020D5
:102D0000540000207D0000207C0000208001002075
:102D100090010020A0010020240000202564000074
:102D2000B00100207C0C0020B2E2C1BFCEDBC8BEE7
:102D300000000000B2E2C1BFD5FDB3A30000000057
:102D4000D0010020C001002040000020C9008842BE
:102D500011D30020084908600D218020FEF720FED5
:102D6000002801D1012000E00020044622460D2168
:102D70008020FEF739FE3EBD4000002010B500F077
:102D80000DF800F0FDF910BD10B500F0A5F800F049
:102D90002FFD10BD10B5C046C04610BD10B50021B6
:102DA0000120800700F063FE002817D000210120D9
:102DB000800700F03DFE0120800700F0AFFE1949BA
:102DC000087008460178184802780078401C164BB5
:102DD0001870164881540120154908700121880790
:102DE00000F045FE00281BD00121880700F020FEDE
:102DF000104800781049097888420CDA0D480278AA
:102E00000078401C0B4B18700C48815C0120800737
:102E100000F088FE04E000200749087005490870AA
:102E200010BD0000250000202600002034020020F4
:102E3000640000202800002027000020FC02002061
:102E400010B50446012C06D0022C0DD0032C14D052
:102E5000042C24D11AE00A2218491948FDF71EFB58
:102E60000A20184908701BE00A2217491448FDF788
:102E700015FB0A201349087012E00A221349104872
:102E8000FDF70CFB0A200F49087009E00A221049DF
:102E90000B48FDF703FB0A200A49087000E000BF59
:102EA00000BF0C4802780078401C0A4B1870044898
:102EB000815C0120800700F035FE10BD974A0000BC
:102EC000FC02002027000020A14A0000AB4A0000BD
:102ED000794A00002800002010B500212A4800F09F
:102EE000C6FD002828D00021274800F0A1FD264873
:102EF00000F014FE2549087025480078002811D1FB
:102F0000084600783A2817D1084601782148027807
:102F10000078401C1F4B18701F48815401201C4929
:102F2000087009E0194801781A4802780078401CB6
:102F3000184B1870184881540121134800F097FD70
:102F400000281FD00121104800F072FD13480078BE
:102F50001349097888420BDA104802780078401C3F
:102F60000E4B18700F48815C074800F0DBFD09E04C
:102F7000002201218020FEF737FD0020084908705B
:102F80000649087010BD0000000100402900002023
:102F9000650000202A000020C40300202C0000202F
:102FA0002B0000205405002070B504460E46207802
:102FB0003A2864D16078302861D1204601F08AFB3C
:102FC00000285CD0A079312806D1E079302803D1DF
:102FD000204601F0A5F952E0A07938284FD1E079D8
:102FE00030284CD126480078AD2848DBA07805462B
:102FF000313D2946204601F04DF92248C06801289C
:1030000004D100F029FE02201E49C8601E48007A43
:1030100000280BD00B210020FEF75AFC062140208F
:10302000FEF756FC284600F013FF27E01548C0685D
:10303000002823D115486843154940180D21C901BE
:103040004018007F002803D1284601F047FA15E018
:103050000C484079002807D10A48C079002803D1DC
:10306000284601F0A1F909E006488079002803D13B
:10307000284601F0C9F801E001F058FB00BF70BD1F
:103080002A0000207C0C002080010020A406000003
:10309000900C002070B505460C462B0000F08AFD10
:1030A000074D05111D2935414D00204630302A4974
:1030B000887011222948FDF7F1F91120284908707C
:1030C0003CE0204630302749887015222348FDF720
:1030D000E5F90A202249087030E0204630302249C4
:1030E000887013221D48FDF7D9F913201C49087078
:1030F00024E0204630301D49887013221748FDF720
:10310000CDF913201649087018E0204630301849D0
:10311000887013221148FDF7C1F913201049087077
:103120000CE0204630301349887011220B48FDF71F
:10313000B5F911200A49087000E000BF00BF0E4831
:1031400002780078401C0C4B18700448815C0B48D6
:1031500000F0E8FC70BD0000A8000020540500202D
:103160002B000020B9000020CE000020E10000204C
:10317000F4000020070100202C0000200001004086
:1031800010B500211F4800F072FC002815D0002166
:103190001C4800F04DFC1B4800F0C0FC1A490870A8
:1031A00008460178194802780078401C174B1870BF
:1031B000174881540120174908700121114800F077
:1031C00056FC00281CD001210E4800F031FC1248AA
:1031D00000781249097888420BDA0F4802780078A3
:1031E000401C0D4B18700E48815C064800F09AFC9C
:1031F00006E000200949087007490870094908706D
:1032000010BD0000006000402D0000202E000020B6
:103210001C06002066000020300000202F00002047
:10322000E40600207D00002010B50446230000F0D5
:10323000C1FC08FE053FFDFCFBFAF9FE5A21FE48E1
:1032400002780078401CFC4B1870FC488154A52281
:10325000184601780078401C1870F8484254042140
:10326000184602780078401C1870F4488154832175
:10327000184602780078401C1870F04881541221DA
:10328000184602780078401C1870EC4881540021E0
:10329000184602780078401C1870E84881540621CE
:1032A000184602780078401C1870E448815481E286
:1032B000C821E248FDF79AF95A21DF4802780078E0
:1032C000401CDD4B1870DD488154A521184602785A
:1032D0000078401C1870D948815421221846017882
:1032E0000078401C1870D548425482211846027854
:1032F0000078401C1870D14881541022184601787B
:103300000078401C1870CD484254002118460278BD
:103310000078401C1870C9488154C948808800044E
:10332000010E184602780078401C1870C34881547A
:10333000C3480179184602780078401C1870BF48CD
:103340008154BF4800890004010E184602780078B5
:10335000401C1870B9488154B948027A184601785F
:103360000078401C1870B5484254B548C068000E3B
:1033700019460A780978491C1970B0498854B04830
:10338000C0680002010E184602780078401C1870D0
:10339000AA488154AA4880890004010E1846027880
:1033A0000078401C1870A5488154A548017B184638
:1033B00002780078401C1870A0488154A048008A08
:1033C0000004020E184601780078401C18709B48D3
:1033D00042549B48017C184602780078401C1870C3
:1033E0009648815496484069000E19460A78097833
:1033F000491C197091498854914840690002020E95
:10340000184601780078401C18708C4842548C484B
:10341000808A0004020E184601780078401C18705B
:10342000864805E047E13DE1E3E0A8E09EE0C0E139
:1034300042548348027D184601780078401C187079
:103440007E4842547F48808A0004010E1846027864
:103450000078401C1870794881547A48027D1846DB
:1034600001780078401C1870744842547648808A6D
:103470000004010E184602780078401C18706F484E
:1034800081547148017D184602780078401C1870FC
:103490006A4881546D480078001219460A78097804
:1034A000491C1970654988546848007819460A789B
:1034B0000978491C1970614988546548808800045E
:1034C000010E184602780078401C18705B48815441
:1034D0005F480179184602780078401C18705748F8
:1034E00081540022184601780078401C1870534817
:1034F000425458484278184601780078401C1870A9
:103500004E4842540021184602780078401C18703A
:103510004A4881544F48C278184601780078401CC8
:103520001870464842540021184602780078401C22
:10353000187042488154474802791846017800784B
:10354000401C18703D48425400221846017800780B
:10355000401C1870394842543E4882781846017819
:103560000078401C18703548425423E107223A493C
:103570003248FCF793FF07202F4908701AE15A22BE
:103580002D4801780078401C2B4B18702B48425472
:10359000A521184602780078401C187027488154ED
:1035A0000422184601780078401C187023484254C1
:1035B0008321184602780078401C18701F488154F7
:1035C0000021184602780078401C18701B4881546E
:1035D0000F22184601780078401C18701748425492
:1035E0000122184601780078401C18701348425494
:1035F000E0E05A21104802780078401C0E4B187009
:103600000E488154A521184602780078401C187095
:103610000A4881540522184601780078401C187029
:10362000064842548221184602780078401C1870DF
:1036300002488154102211E02F000020E4060020EF
:10364000900C0020280E0020C00F00202400002035
:10365000D00100207C0C0020C94A000018460178E7
:103660000078401C18705C484254092118460278C2
:103670000078401C1870584881545848008800044D
:10368000020E184601780078401C187052484254C7
:1036900052480178184602780078401C18704E484D
:1036A000815400BF14224E494B48FCF7F7FE14200A
:1036B0004C4908707EE05A214A4802780078401C44
:1036C000484B187044488154A52218460178007868
:1036D000401C1870404842540B211846027800786C
:1036E000401C18703C4881548221184602780078AA
:1036F000401C187038488154002118460278007820
:10370000401C1870344881549C2218460178007877
:10371000401C1870304842545A21184602780078EC
:10372000401C18702C488154A52218460178007856
:10373000401C187028484254294809380278184615
:1037400001780078401C18702348425424480938F6
:103750000179184602780078401C18701E48815480
:103760001F4809384179184602780078401C1870C3
:10377000194881541A480938817918460278007826
:10378000401C18701448815415480938C1791846EE
:1037900002780078401C18700F488154104809388E
:1037A000017A184602780078401C18700A48815443
:1037B00000E000BF00BF0B48007800280ADD0A487F
:1037C00002780078401C084B18700348815C074859
:1037D00000F0A8F910BD0000E4060020040000205D
:1037E0001D3B00202F000020300000200060004022
:1037F00010B50021204800F03AF9002815D000212A
:103800001D4800F015F91C4800F088F91B490870A4
:10381000084601781A4802780078401C184B187046
:10382000184881540120184908700121124800F0FD
:103830001EF900281ED001210F4800F0F9F81348A6
:1038400000781349097888420BDA1048027800782A
:10385000401C0E4B18700F48815C074800F062F95D
:1038600008E000200A49087008490870C821094882
:10387000FCF7BCFE10BD00000064004031000020D9
:1038800032000020AC070020670000203400002038
:10389000330000207408002010B50446230000F017
:1038A00089F915930C151E3039424B545D666F78BB
:1038B000818A9393939393279300042249494A481A
:1038C000FCF7ECFD0420494908707EE004224849D9
:1038D0004548FCF7E3FD04204449087075E00422E4
:1038E00044494148FCF7DAFD0420404908706CE087
:1038F000092241493C48FCF7D1FD09203B490870A9
:1039000063E004223D493848FCF7C8FD04203749EC
:10391000087000BF04223A493348FCF7BFFD042079
:103920003249087051E00D2236492F48FCF7B6FDA8
:103930000D202E49087048E00D2233492A48FCF733
:10394000ADFD0D20294908703FE00F222F49264880
:10395000FCF7A4FD0F202549087036E00D222C4904
:103960002148FCF79BFD0D20204908702DE0132213
:1039700028491D48FCF792FD13201C49087024E0DB
:10398000112225491848FCF789FD112017490870B4
:103990001BE00D2221491448FCF780FD0D2013493E
:1039A000087012E013221E490F48FCF777FD132020
:1039B0000E49087009E009221A490B48FCF76EFD10
:1039C00009200A49087000E000BF00BF16480278CD
:1039D0000078401C144B18700348815C134800F0B9
:1039E000A1F810BD404900007408002033000020F9
:1039F000444900004849000058490000504900006F
:103A00004C49000096490000A3490000B04900005D
:103A1000BF490000CC490000DF490000F049000028
:103A2000664A000061490000340000200064004044
:103A300070B504460D460022294620461430FEF794
:103A400051FC002070BD70B504460D460122294688
:103A5000201DFEF747FC002070BD70B504460D46E2
:103A600001222946201DFEF73DFC002070BD70B5E7
:103A700004460D460026294620461030FDF722FF59
:103A80000646304670BD0000F0B585B005460C46D0
:103A90000127214903C90491039000200290002CC2
:103AA00002D1042005B0F0BD002068606088617814
:103AB0000843A1880843217808436860207840289B
:103AC00002D02078C02824D1A088C117C90D0918B8
:103AD0004912890003AA515A8EB2E168B1400846E2
:103AE000FDF7BAF90190A068FDF7B6F900900199C9
:103AF000FDF7BEF802903F210906029800F072FE21
:103B00000190FDF765F980B2A86104212846FFF70E
:103B10009AFF00273846C5E7F04A000001460868CA
:103B2000C0B2704702461068000A0002CBB21843C8
:103B300010600020704710B5C046C046C046C04661
:103B4000C046C046C046C04610BD10B5C046C046BF
:103B500010BD00000E49086A096A0122120791434C
:103B600089180B4A11620B49C9680B4A1140094A6E
:103B7000D16011460968B0221143064A116011460E
:103B8000096AB0221143034A116201490862704771
:103B900000200040401D02404FFF00000248034942
:103BA00088600348886070475A5A0000002000402F
:103BB000A5A5000030B47446641E2578641CAB4291
:103BC00004D3635D5B00E31830BC18471D46F8E77B
:103BD00010B5002819DB1A4A03231B02D2188308E8
:103BE0009B00D2588307DC0EFF23A3409A438B0728
:103BF0001B0E8407E40EA3401A43114B0324240236
:103C00001B198408A4001A5118E00E4A03071B0F61
:103C1000083B9B089B00D2588307DC0EFF23A34080
:103C20009A438B071B0E8407E40EA3401A43054BEF
:103C30000407240F083CA408A4001A5110BD00007A
:103C400000E100E01CED00E030380A2801D201203C
:103C5000704700207047000010B50B210020FDF7D1
:103C6000B5FE06214020FDF7B1FE01200149087094
:103C700010BD00008001002070B504460D460A4AC0
:103C80002946204600F04CF8C8200849087008482A
:103C900002780078401C064B18700348815C054888
:103CA000FFF740FF70BD00007408002033000020C3
:103CB0003400002000640040F0B585B007460C4693
:103CC0000020049000BF05E081007A580499511843
:103CD0000491401CA042F7DB002C0EDD2046FCF7CF
:103CE000BCFF039102900498FCF7BFFF0191009084
:103CF000039B029AFCF76CFD01E00020014605469B
:103D0000FCF728FD05B0F0BD10B5024600208C0080
:103D1000A31802E014682018121D9A42FAD310BDAD
:103D2000F7B5054614460198FCF796FB0746BE1CFE
:103D3000FD2020703004000E6070A6700120E0703D
:103D40002B00FFF737FF0504070A0D1013000020B2
:103D500020710CE00120207109E00220207106E0B2
:103D60000320207100BF0420207100E000BF00BFCD
:103D70003A46601D0199FCF791FBFEBD10B50A465D
:103D80000146002900D110BD02E000230B70491C40
:103D90001346521E002BF8D100BFF4E770B505465C
:103DA00011481249486100208861052008610FE030
:103DB00000200E4988610E490E480068FCF71AFC85
:103DC000012109060C1A00BF08488069A042FBD8EF
:103DD00028466D1E0028EBD10448006940084000C9
:103DE0000249086170BD0000FFFFFF0000E000E035
:103DF000A08601000000002070B505461148124958
:103E00004861002088610520086110E000200E490B
:103E100088617D21C9000D480068FCF7EBFB01219A
:103E200009060C1A00BF08488069A042FBD8284642
:103E30006D1E0028EAD1044800694008400002498C
:103E4000086170BDFFFFFF0000E000E000000020FF
:103E500070B504460020804908708048604380495E
:103E600040180D21C901401840697E49C96F884238
:103E70007ED17C4AD16F794A6243794BD218104681
:103E80001830FFF719FF0646FCF7A2FF734961439C
:103E9000734A89186922D2008918724AD26F920037
:103EA0008850704AD16F6D4A62436D4BD2181046EC
:103EB000FF30B130FFF700FF0646FCF789FF674986
:103EC0006143674A8918272252018918654AD26FCF
:103ED0009200885061486043614940186921C900D7
:103EE00040186049C96F890041585C4860435C4A8A
:103EF0008018032252028018C06F81424AD357486B
:103F00006043574940186921C90040185549C96F95
:103F10008900415851486043514A80180322520297
:103F20008018806F814235D24C4860434C4940181C
:103F30002721490140184B49C96F8900415847481A
:103F40006043474A80180D22D201801840688142A0
:103F500020D3424860434249401827214901411873
:103F60004048C06F800009583C4860433C4A00E02C
:103F700014E080180D22D20180180068814209D215
:103F8000012136486043364A80180D22D20180183C
:103F900041773EE00120344908703AE02F48604301
:103FA0002F49401881682D4860432D4A80186922A6
:103FB000D200821829486043294BC0180D23DB0129
:103FC000C0180069800011502448604324494018FB
:103FD000016922486043224A801827225201821830
:103FE0001E4860431E4BC0180D23DB01C01800693A
:103FF000800011501948604319494018194640186B
:104000000069401C15496143154A89181A468918E8
:104010000861012500200CE010494143104A89182D
:104020000D22D2018918497F012901D1002502E022
:10403000401C0628F0DB00BF002D01D0012000E06D
:1040400000200A4908720846007A002802D00020A1
:104050000149087270BD000080010020A406000024
:10406000900C0020903A0020900100207C0C002051
:1040700030B503460C46002500210AE08800185898
:10408000002804D16D1C954202DB012030BD0025C3
:10409000491CA142F2DB0020F8E7000008B5FDF75B
:1040A0007AFAFDF79BFBFDF75CFBFDF73FFBFDF7A5
:1040B00029F9FDF7EDF9FDF79FF9FDF739F9FDF75E
:1040C00079FAFDF7EDF87D200001FFF795FE142049
:1040D000FFF7E2FB02210420FEF7DCFFFF202D307A
:1040E000FFF78AFE0E20FFF7D7FBFF202D30FFF7EA
:1040F00083FE01210420FEF7CDFF0B20FFF7CCFB50
:104100001420FFF779FE1820324908600B2008714F
:104110000D20487188710920C871002008720024A0
:1041200007E00720FFF780F8C820FFF765FE601C56
:10413000C4B2052CF5DBFDF769FF27480069009044
:1041400025480FC8FDF732FF002024494860C860A9
:1041500088604861086164202149C86738E02148C7
:10416000007A002827D02048007A00280FD00020AD
:104170001D490872012200218020FDF735FC1B48F3
:1041800001781B48FDF7E6FC002018490870194823
:10419000007A00280FD0002016490872012211462B
:1041A0008020FDF721FC144801781448FEF7FCFE3E
:1041B00000201149087000BF114800780128FBD089
:1041C00002201049087000BF0D4800780028FBD07D
:1041D000C5E70000143B00207C0C0020900C002060
:1041E000903A00207001002060010020360000207D
:1041F0003C090020500100202A000020C4030020B8
:104200007D0000207C0000201D49097800290FD086
:1042100000211B4A117001211A4A117000221A490B
:1042200041431A4BC918CA6017494143C9184A612A
:1042300014490978002904D10121154A9171104AC5
:10424000117011494143114A8918CA680E49414306
:104250000E4BC918896852180B494143C918CA60E6
:10426000094941431A4689184A6907494143C9180F
:104270000969521804494143C9184A61704700004E
:1042800019000020A0010020A4060000900C0020CE
:104290007C0C0020F0B595B004460D4628210BA8F3
:1042A000FCF7A6F9282101A8FCF7A2F900201DE0DF
:1042B00000220023002110E00A265643C7000C37D5
:1042C0007F18E75D303FF2190A265E43C7005C376E
:1042D0007F18E75D303FF319491C0829ECDB8100AA
:1042E0000BAE7250810001AE7350401C0A28DFDB18
:1042F0000A210BA8FFF708FD07496943074A8918F7
:1043000088600A2101A8FFF7FFFC03496943034ABB
:104310008918086115B0F0BDA4060000900C0020BB
:1043200010B582781146313982791212C379D318C7
:10433000024A4A43024C1219536010BDA406000001
:10434000900C002010B50D218020FDF73FFB0B21C4
:104350000020FDF73BFB03214020FDF737FB062142
:104360004020FDF733FB7D20C000FFF745FD0D2108
:104370008020FDF7ADFA0B210020FDF7A9FA0321FB
:104380004020FDF7A5FA06214020FDF7A1FA10BD57
:1043900070B504460D461646681E82002146201D53
:1043A000FCF7BDF8266070BD70B504463C4B634316
:1043B0003C4D5B199A683C4BD96F394B63435B1991
:1043C00018461830FFF7E4FF354B63435B191A6951
:1043D000354BD96F324B63435B191846FF30B13010
:1043E000FFF7D6FF304AD16F2D4A62432B46D218D1
:1043F00010461830FFF760FC0546FCF7E9FC284939
:104400006143284A89181831274AD26F521C9200FA
:104410008850254AD16F224A6243224BD218104657
:10442000FF30B130FFF748FC0546FCF7D1FC1C49D2
:1044300061431C4A8918FF31B1311B4AD26F521CAB
:1044400092008850184AD16F154A6243154BD21812
:104450001046FF30B1301E22FFF70AFE00280DD0B3
:1044600001210F4860430F4A80180D22D2018018A5
:104470008177012021010D4A505410E000210848A5
:104480006043084A80180D22D201801881770120EC
:104490002101064A8918087200202101505470BD7C
:1044A000A4060000900C0020903A0020D0010020CB
:1044B00070B504462046FBF7CFFF054603E0002118
:1044C000681E05462154002D07DD681E205C0D285E
:1044D000F5D0681E205C0A28F1D070BD70B5044686
:1044E00078486043784940180D21C9014018016996
:1044F0007648C06F81427DDB744AD16F714A624356
:10450000714BD21810461830FFF7D6FB0646FCF761
:104510005FFC6C4961436C4A891818316B4AD26F51
:1045200092008850694AD16F664A6243664BD2183E
:104530001046FF30B130FFF7BFFB0646FCF748FCE2
:1045400060496143604A8918FF31B1315F4AD26FD7
:10455000920088505B4860435B49401818305B49C3
:10456000C96F8900415857486043574A8018032251
:1045700052028018C06F814246D35248604352496C
:10458000401818305149C96F890041584D4860435F
:104590004D4A8018032252028018806F814233D224
:1045A0004848604348494018FF30B1304749C96F17
:1045B0008900415843486043434A80180D22D20184
:1045C0008018406881421FD33E4860433E494018EE
:1045D000FF30B1303D49C96F8900415839486043C7
:1045E000394A80180D22D2018018006881420BD20E
:1045F000012100E015E033486043334A80180D2262
:10460000D2018018017742E000212E4860432E4AF3
:1046100080180D22D201801801610C20FFF73CF9AF
:1046200035E028486043284940188268254860439F
:104630004018183023496143234BC9180D23DB016F
:10464000C9180969890042501E4860431E49401834
:1046500002691C4860434018FF30B130194961437A
:10466000194BC9180D23DB01C9180969890042508B
:104670001448604314494018194640180069401C0A
:1046800010496143104A89181A46891808610125A2
:1046900000200CE00B4941430B4A89180D22D2013E
:1046A0008918097F002901D1002502E0401C062855
:1046B000F0DB00BF002D01D0012000E00020044904
:1046C000C87170BDA4060000900C0020903A002034
:1046D0007C0C0020FEB506463046FFF7E9FE3B2184
:1046E0003046FBF7AFFE0746002F00D1FEBD10227B
:1046F0000021781CFBF76EFEC0B201903446381BD7
:104700000090002503E02178641C4819C5B2009888
:10471000411E00910028F6D16842401EC5B20198A2
:10472000854201D10120E1E70020DFE710B50B2130
:104730004020FDF7DBF8002801D1012000E0002037
:104740001C49487000214020FDF7D0F8002801D115
:10475000012100E00021174881700A214020FDF767
:10476000C5F8002801D1012100E000211148C170E5
:1047700002214020FDF7BAF8002801D1012100E014
:1047800000210C4801710024002004E00949491C63
:10479000095C0C19401C0428F8DB002C01D0012115
:1047A00000E00021034841714079002801D101490E
:1047B000887110BD7C0C002010B500290AD0087843
:1047C000002807D005487844FCF778FC002801D081
:1047D000002010BD0248784410BD000032040000E3
:1047E0002A04000070B501250400ED074C4020D4D8
:1047F000441A01D2001B0919C60D4B00F2B2FF2A60
:1048000029D01B0E2CD000020C02D31A2C43DC4002
:104810002843051910D2280A02D3401C6D0611D076
:10482000761EF6058019FF2A00DA70BDC00DC0059E
:1048300070BD694000F022F801200543C541521CBB
:10484000761CE8E764089C40C90161408900E7D113
:104850000124A043E4E71B0E440200D0034870BDCE
:10486000002AFCD1C00FC00770BD00BF0000C07F90
:1048700070B501250400ED074C4022D4441A02D241
:104880006C40001B0919C60D4B00F2B2FF2A4BD039
:104890001B0E50D000020C02D31A2C43DC40A8435C
:1048A000051B05D5AD0019D36D08761E521E37D0F5
:1048B000F605280A01D2801970BD70416D0603D03B
:1048C00070BD6940FFF794FF9C40090261404900B8
:1048D00001D0401E70BD0124A04370BD6D081DD0E5
:1048E00001202B0C01D12D0410302B0E01D12D02F3
:1048F00008302B0F01D12D01001DAB0F01D1AD00F0
:10490000801CEB0F01D16D00401C6D00361A121A8D
:10491000680AF5054019012A02DB70BD002070BD50
:10492000C036300AC00770BD1B0E440201D1FF2BF8
:1049300000D1024870BD002AF0D070BD0000C07FD9
:10494000FD000102FD000103FD000104FD00012145
:10495000FD000122FD0001FFFD000601015B763133
:104960005DFD000601015B73395DFD000601015B21
:1049700074385DFD000601015B70313030305DFD43
:10498000000601015B6D35315DFD000601015B66CE
:10499000315DFD000164FD000A0100D3EED2F4CCCC
:1049A000ECCFC2FD000A0101D7D4BCECB3C9B9A653
:1049B000FD000C0101B4AEBFDAC6C1B9CAD5CFFD46
:1049C000000A0101B5C0BACFB9CAD5CFFD001001A8
:1049D00001C9EDB7DDD6A4C4A3BFE9B9CAD5CFFDDF
:1049E000000E0101D2C7C6F7BFAACABCD7D4BCEC1F
:1049F000FD000A0101D6D8BDA8B1BEB5D7FD000C97
:104A00000101D7F3CAD6B1B3CEDBC8BEFD000C019D
:104A100001D7F3CAD6D0C4CEDBC8BEFD000C01015D
:104A2000D3D2CAD6B1B3CEDBC8BEFD000C0101D3D0
:104A3000D2CAD6D0C4CEDBC8BEFD000A0101D7F36E
:104A4000BDC5CEDBC8BE0000FD000A0101D3D2BD4A
:104A5000C5CEDBC8BE0000FD000A0101D2C2CEEF08
:104A6000CEDBC8BE0000FD00100101C9E8B1B8CE20
:104A7000DBC8BEC7EBC8A5CEDBAAAAAA966900030D
:104A800010FFECAAAAAA9669000311FFEDAAAAAA30
:104A90009669000312FFEEAAAAAA966900032001F4
:104AA00022AAAAAA96690003200221AAAAAA9669A4
:104AB0000003300132AAAAAA96690003300330AA83
:104AC000AAAA966900036000635AA50483000F0137
:104AD0005AA50B82009C5AA500093D0000127A00DD
:104AE0000024F4004086510100366E0100800096DB
:104AF00004000000030000000400000003000000A8
:104B00000200000004000008000000000000000295
:104B1000000100001080807F7E7D7C7B7A79787731
:104B20007676757473727171706F6E6E6D6C6C6B7E
:104B30006A6A69686867666665646463636261611E
:104B400060605F5F5E5E5D5D5C5C5B5B5A5A59599D
:104B50005858575756565555555454535352525208
:104B600051515050504F4F4F4E4E4D4D4D4C4C4C5F
:104B70004B4B4B4A4A4A49494948484847474747A7
:104B800046464645454544444444434343434242E4
:104B900042424141418182838485868788898B8C0A
:104BA0008D8E8F919293959697999A9C9D9FA0A296
:104BB000A3A5A7A8AAACAEB0B2B3B5B7B9BCBEC0E6
:104BC000C2C5C7C9CCCED1D4D7D9DCDFE2E6E9EC87
:104BD000F0F3F7FAFE000000084D0000000000208E
:104BE0003402000054110000884D000034020020FF
:104BF000843D00000401000010010000430000009B
:104C0000F8FFFFFF004040404040404040404141ED
:104C10004141414040404040404040404040404091
:104C2000404040404005020202020202020202022B
:104C30000202020202202020202020202020200228
:104C400002020202020290909090909010101010B8
:104C50001010101010101010101010101010101054
:104C600002020202020288888888888808080808E8
:104C700008080808080808080808080808080808B4
:104C800002020202400000000000000000000000DC
:104C90000000000000000000000000000000000014
:104CA0000000000000000000000000000000000004
:104CB00000000000000000000000000000000000F4
:104CC00000000000000000000000000000000000E4
:104CD00000000000000000000000000000000000D4
:104CE00000000000000000000000000000000000C4
:104CF00000000000000000000000000000000000B4
:104D000000000000000000001113093D320A0210EB
:104D1000A03A010311320429200154022B02180F7A
:104D20003A3030343123313042373B31360D92291D
:104D3000113A33117D3034423015880E313432232C
:104D40003030413530303B4135282913BB33433BAC
:104D5000592689135F31233830313611155AA5048D
:104D600083E210E3983AF2FAE9100A1D6410E37046
:104D7000170B1CB80B100B1CE803100B2C2C01504C
:084D8000093310196400000062
:04000005000000C136
:00000001FF
